:100000000C94B3000C9434020C94D4000C94D400DF
:100010000C94D4000C946E030C9449030C94D400FB
:100020000C94D4000C94D4000C94D4000C94D40000
:100030000C94D4000C94D4000C94D4000C94D400F0
:100040000C94D4000C94D4000C94D4000C94D400E0
:100050000C94D4000C94D4000C94D4000C94D400D0
:100060000C94D4000C94D4000C94D4000C94D400C0
:100070000C94D4000C94D4000C94D4000C94D400B0
:100080000C94D4000C94D4000C94D4000C94D400A0
:100090000C94D4000C94D4000C94D4000C94D40090
:1000A0000C94D4000C94D4000C94D4000C94D40080
:1000B0000C94D4000C94D4000C94D4000C94D40070
:1000C0000C94D4000C94D4000C94D4000C94D40060
:1000D0000C94D4000C94D4000C94D4000C94D40050
:1000E0000C94D40007634236B79BD8A71A396856D8
:1000F00018AEBAAB558C1D3CB7CC5763BD6DEDFD4A
:10010000753EF6177231BF000000803F0800000006
:10011000BE922449123EABAAAA2ABECDCCCC4C3EFC
:1001200000000080BEABAAAAAA3E00000000BF00EB
:100130000000803F0000000000084178D3BB4387E7
:10014000D1133D190E3CC3BD4282AD2B3E68EC82FB
:1001500076BED98FE1A93E4C80EFFFBE01C4FF7F80
:100160003F000000000011241FBECFEFD1E2DEBF30
:10017000CDBF00E00CBF12E0A0E0B2E0EAE0F7E3A0
:1001800000E00BBF02C007900D92A639B107D9F766
:1001900013E0A6E9B2E001C01D92AB36B107E1F76A
:1001A0000E94F0130C94831B0C94000086E69EE0E2
:1001B0000197F1F700004098419880E388B9429A8E
:1001C000EFEFF7E43197F1F700C000004298E6E660
:1001D000FEE03197F1F700004098419888B9429AC3
:1001E000EFEFF7E43197F1F700C000004298E6E640
:1001F000FEE03197F1F700004098419888B9429AA3
:100200008FEF97E40197F1F700C000004298E6E60F
:10021000FEE03197F1F700004098419880E288B9FC
:10022000429A8FEF97E40197F1F700C000004298DF
:10023000089598B19F7098B998B1282F207F922B7C
:1002400098B940984198429AEFEFF7E43197F1F767
:1002500000C00000429898B19F7098B998B18295FB
:10026000807F892B88B940984198429A8FEF97E414
:100270000197F1F700C000004298089598B19F706F
:1002800098B998B1282F207F922B98B9409A41981D
:10029000429AEFEFF7E43197F1F700C0000042987F
:1002A00098B19F7098B998B18295807F892B88B951
:1002B000409A4198429A8FEF97E40197F1F700C076
:1002C00000004298089580E80E9419010895CF9394
:1002D000DF93EC018881882331F021960E943E0152
:1002E00089918823D9F7DF91CF910895823079F0F1
:1002F000833018F48130C9F405C0833069F084304C
:10030000A1F40FC0862F81580E9419010895862FED
:1003100081540E9419010895862F8D560E9419015B
:100320000895862F8D520E94190108950F931F93EF
:10033000CF93DF938A01E901882311F0662319F432
:100340000E94630102C00E947601C530D10571F49C
:10035000C80160E177E20E945C1BCB01C0969093DC
:100360004603809345030E943E0103C0C430D1057B
:10037000B9F4C80168EE73E00E945C1BCB01709376
:100380004B0360934A036AE070E00E945C1BC096D6
:1003900090936603809365030E943E0181E001C053
:1003A00080E0C330D10511F08130B1F4C80164E6BA
:1003B00070E00E945C1BCB0170934B0360934A0377
:1003C0006AE070E00E945C1BC0969093610380938A
:1003D00060030E943E0181E0C230D10511F08130FE
:1003E000B1F42AE030E0C801B9010E945C1BCB01E6
:1003F00070934B0360934A03B9010E945C1BC09643
:1004000090935B0380935A030E943E0181E0C130C8
:10041000D10511F0813061F4C8016AE070E00E94FA
:100420005C1BC09690936403809363030E943E011B
:10043000C630D1051CF085E40E943E01DF91CF91CA
:100440001F910F9108953B9A439808958AB18E6F3A
:100450008AB9589A0895F894E9E6F0E080818260BC
:100460008083E89A789408951F920F920FB60F92A6
:1004700011248F939F93AF93BF93809133039091F7
:100480003403A0913503B09136030196A11DB11D2F
:100490008093330390933403A0933503B0933603D2
:1004A000BF91AF919F918F910F900FBE0F901F90B2
:1004B00018956C98749A08956D98759A0895259A70
:1004C0002D9A0895269A2E9A0895279A2F9A08957C
:1004D00087B1876F87B988B1807888B9089510BAD5
:1004E00011BA1092070110920801089581B18F602E
:1004F00081B982B1807F82B9EAE0F1E080818861D0
:100500008083EBE0F1E080818861808308958FEF44
:10051000809304011092050108950E9423020E9415
:1005200068020E9487020E9459020E945C020E9497
:100530005F020E9462020E9465020E946F020E9496
:1005400076020E94260208950F931F93682F70E091
:1005500080E090E00E9406192FEE39EC43E95FE35A
:100560000E94F719B62FA72F382F292F60E070E0CF
:1005700080E89FE3422F0B2F1A2F232F342FA9013E
:1005800098010E946D182AE939EF4EE255E40E9465
:10059000941920E030E040E251E40E9494190E9456
:1005A000D518882777FD8095982F0E9408190E94FA
:1005B000D518862F972F23E08132920710F080E222
:1005C00093E01F910F910895E1E8F0E010828CEF25
:1005D0008093850081E08093840093E0909389006C
:1005E0008FEF8093880090938B0080938A00909384
:1005F0008D0080938C0090938700809386008BEA17
:1006000080938000109282008CE080830895E1E264
:10061000F1E010828FEF8093250191E09093240107
:10062000109229018093280110922B0180932A01B6
:1006300010922D0180932C0189EA809320018BE098
:100640008083089586B1886088B9089586B1877FD0
:1006500088B908958093280160932A01089592B182
:10066000907F8F70982B92B9089586E00E942F0397
:10067000089589E00E942F03089585E00E942F03CA
:1006800008958AE00E942F03089580E00E942F03BE
:1006900008951F920F920FB60F9211248F939F937C
:1006A000AF93BF938091370390913803A0913903A2
:1006B000B0913A030196A11DB11D80933703909329
:1006C0003803A0933903B0933A03BF91AF919F9140
:1006D0008F910F900FBE0F901F9018951F920F9241
:1006E0000FB60F9211248F939F93AF93BF93809176
:1006F0003B0390913C03A0913D03B0913E030196D2
:10070000A11DB11D80933B0390933C03A0933D0337
:10071000B0933E03BF91AF919F918F910F900FBE09
:100720000F901F9018950F931F93CF93BC0180E0FB
:1007300090E00E94061928E431EE42E850E40E945D
:100740006D180E94DA18DC01CB01A0E0B0E0109235
:100750003703109238031092390310923A03109223
:100760003B0310923C0310923D0310923E03F1E0D4
:10077000C0E0409137035091380360913903709184
:100780003A0300913B0310913C0320913D033091CB
:100790003E03EF2F481759076A077B0708F4EC2F31
:1007A000EE2349F44F2F081719072A073B0708F4CF
:1007B0004C2F4423F1F20E944503CF911F910F91DA
:1007C0000895BC0180E090E00E94061925EE30ED0E
:1007D0004AEA50E40E946D180E94DA18462F572FFB
:1007E000682F792F10923703109238031092390333
:1007F00010923A038091370390913803A091390306
:10080000B0913A03481759076A077B0798F70E9487
:1008100045030895CF93DF93EC010E943503CE0189
:100820000E94E103DF91CF910895CF93DF93EC0114
:100830000E943903CE010E94E103DF91CF91089518
:10084000CF93DF93EC010E943D03CE010E949303FE
:10085000DF91CF910895CF93DF93EC010E94410384
:10086000CE010E949303DF91CF910895883018F054
:1008700098E090937B008770806280937C00EAE729
:10088000F0E0808180648083808184FFFDCF80914F
:100890007900EAE7F0E090819061908310927B000C
:1008A0000895E2E0F1E08081877F80830895E2E0AF
:1008B000F1E08081886080830895EAE7F0E01082AB
:1008C00010927B0080E280937C0080E880BF86E805
:1008D0008083089586E69EE00197F1F7000088E2A4
:1008E0000E94190181E00E94190186E00E9419010D
:1008F0008EE00E94190180E80E9419010895F89481
:10090000EAE6F0E0808182608083EC9A7894089532
:10091000F894EAE6F0E0808188608083ED9A78942C
:100920000895F8940E948D020E945D040E94E402E2
:100930000E9407030E947F040E9488040E942B02E9
:100940007894089510928900682F70E080E090E01C
:100950000E9406192BE734E14EEE5FE30E946D180A
:1009600020E030E04CE052E40E9409180E94DA18BE
:1009700060938800089510928B00682F70E080E0EB
:1009800090E00E9406192BE734E14EEE5FE30E94EF
:100990006D1820E030E04CE052E40E9409180E94FB
:1009A000DA1860938A00089510928D00682F70E025
:1009B00080E090E00E9406192BE734E14EEE5FE301
:1009C0000E946D1820E030E04CE052E40E940918CB
:1009D0000E94DA1860938C0008950F931F93CF93B1
:1009E000DF938C018FEF9FE7A6E181509040A040FC
:1009F000E1F700C0000080915C0390915D039C01D1
:100A0000245130402431310520F48AE50E94D40479
:100A100093C09C012C5030402730310508F045C070
:100A200040919602509197028091650290916602E2
:100A300048175907C1F42091480330914903809128
:100A40008D0290918E022817390769F4C4EB8C2F20
:100A50000E94D404AFEFBFE81197F1F700C0000087
:100A6000C150A8F769C08091670290916802481749
:100A7000590709F061C020914803309149038091E2
:100A80009102909192022817390709F055C0C0E0F1
:100A90008C2F0E94D4048FEF9FE80197F1F700C0DC
:100AA0000000CF5FC53BA1F747C08A97873091050B
:100AB00008F042C0409196025091970280916502E1
:100AC0009091660248175907C1F42091480330916C
:100AD000490380919102909192022817390769F495
:100AE000C4EB8C2F0E94D404AFEFBFE81197F1F74D
:100AF00000C00000C150A8F71FC08091670290910C
:100B0000680248175907C1F42091480330914903FE
:100B100080918D0290918E022817390769F4C5EBF8
:100B2000D0E084EB0E94D4048FEF9FE80197F1F7A7
:100B300000C000002197A9F70230110589F4C8E729
:100B40008C2F0E94BB048FEF9FE1A1E08150904069
:100B5000A040E1F700C00000CF5FC53B89F713C09C
:100B60000130110581F4C8E78C2F0E94BB048FEF80
:100B70009FE1A1E081509040A040E1F700C000005B
:100B8000CF5FC73989F78FEF9FE7A6E1815090408B
:100B9000A040E1F700C00000C2E88FEF9FE1A1E0B4
:100BA00081509040A040E1F700C000008C2F0E94CF
:100BB000A204C150CC3489F78FEF9FE7A6E18150A2
:100BC0009040A040E1F700C000000230110589F418
:100BD000C4EB8FEF9FE1A1E081509040A040E1F78E
:100BE00000C000008C2F0E94BB04C150C73789F79A
:100BF00013C00130110581F4C6E98FEF9FE1A1E038
:100C000081509040A040E1F700C000008C2F0E946E
:100C1000BB04C150C73789F7DF91CF911F910F9166
:100C20000895CF9380915C0390915D039C012C50BB
:100C300030402730310558F58091480390914903A1
:100C400020919102309192028217930761F480E023
:100C50000E94D40480916702909168029093970259
:100C60008093960212C020918D0230918E028217DD
:100C7000930759F484EB0E94D4048091650290910B
:100C800066029093970280939602C8E72EC08A97D7
:100C900087309105D0F780914803909149032091C6
:100CA0009102309192028217930761F484EB0E94C3
:100CB000D40480916502909166029093970280938C
:100CC0009602E3CF20918D0230918E028217930716
:100CD000E1F680E00E94D40480916702909168025E
:100CE0009093970280939602D0CF8C2F0E94BB04E2
:100CF0008FEF9FE1A1E081509040A040E1F700C05C
:100D00000000CF5FC53B89F78FEF9FE7A6E18150D9
:100D10009040A040E1F700C00000CDE48FEF9FE1DC
:100D2000A1E081509040A040E1F700C000008C2F6E
:100D30000E94A204CF5FC33889F78FEF9FE7A6E137
:100D400081509040A040E1F700C00000C4EB8FEF5D
:100D50009FE1A1E081509040A040E1F700C0000079
:100D60008C2F0E94BB04C150C73789F7CF910895DB
:100D700083E0809389008FEF80938800089583E05B
:100D800080938B008FEF80938A00089583E0809397
:100D90008D008FEF80938C0008955E985F98089582
:100DA0005E9A5F9A08955E985F9A08955E9A5F983A
:100DB00008955C9A5D9A08950E94CD0610923303BF
:100DC0001092340310923503109236038FEF9FE791
:100DD000A4E081509040A040E1F700C00000809165
:100DE000330390913403A0913503B091360380937F
:100DF000550390935603A0935703B0935803089557
:100E00000E94D006109233031092340310923503DF
:100E1000109236038FEF9FE7A4E081509040A040EE
:100E2000E1F700C000008091330390913403A0915A
:100E30003503B091360380934D0390934E03A093F6
:100E40004F03B093500308950E94D30610923303CA
:100E50001092340310923503109236038FEF9FE700
:100E6000A4E081509040A040E1F700C000008091D4
:100E7000330390913403A0913503B09136038093EE
:100E80003F0390934003A0934103B093420308951E
:100E9000CF92DF92EF92FF920F931F93CF93DF9346
:100EA00000D00F92CDB7DEB70E94D9068BE00E942A
:100EB0003604809362030E94A40290936A03809395
:100EC000690319821A821B821C820E94DC068FEF42
:100ED0009FE7A6E181509040A040E1F700C00000EC
:100EE0000E9424078FEF9FE7A6E181509040A04029
:100EF000E1F700C000000E9400078FEF9FE7A6E126
:100F000081509040A040E1F700C000000E946A04B8
:100F10004091690350916A0382E061E025E030E08E
:100F20000E9496018091550390915603A09157031A
:100F3000B0915803853AE6E09E07E0E0AE07E0E0B6
:100F4000BE0708F04CC080913F0390914003A091F0
:100F50004103B0914203853AF6E09F07F0E0AF0706
:100F6000F0E0BF07E0F580914D0390914E03A09112
:100F70004F03B0915003853A26E0920720E0A20784
:100F800020E0B20760F58091690390916A030197B0
:100F9000A1E08E359A0718F581E061E00E947601A4
:100FA00080E092E00E9467014091690350916A03DA
:100FB00082E061E025E030E00E9496010E94220379
:100FC0008FEF9FEFACE281509040A040E1F700C06E
:100FD00000000E94260381E00E94190173C1409124
:100FE00055035091560360915703709158038091B7
:100FF0003F0390914003A0914103B09142038417B5
:101000009507A607B70708F066C0409155035091B1
:101010005603609157037091580380914D0390914E
:101020004E03A0914F03B091500384179507A60774
:10103000B70708F050C08091690390916A03019747
:10104000A1E08E359A0708F046C080915503909133
:101050005603A0915703B091580389839A83AB83B9
:10106000BC8305E011E08BEFF801808381E061E053
:101070000E9476018DE092E00E946701C980DA80CB
:10108000EB80FC8082E061E0A60125E030E00E9478
:1010900096018FEF9FE7A6E181509040A040E1F7D5
:1010A00000C0000081E00E941901D8011C928091CB
:1010B0003103909132039C01215030403093320330
:1010C00020933103181619060CF0FCC0809187029A
:1010D00090918802F7C040913F0350914003609186
:1010E00041037091420380914D0390914E03A09172
:1010F0004F03B091500384179507A607B70708F070
:1011000066C040913F03509140036091410370914C
:1011100042038091550390915603A0915703B091DB
:10112000580384179507A607B70708F050C08091A9
:10113000690390916A030197B1E08E359B0708F02F
:1011400046C080913F0390914003A0914103B0912C
:10115000420389839A83AB83BC8305E011E08EEF61
:10116000F801808381E061E00E94760188E192E0ED
:101170000E946701C980DA80EB80FC8082E061E038
:10118000A60125E030E00E9496018FEF9FE7A6E1DF
:1011900081509040A040E1F700C0000081E00E9433
:1011A0001901D8011C9280912D0390912E039C016E
:1011B0002150304030932E0320932D03181619062A
:1011C0000CF080C080918302909184027BC040919A
:1011D0004D0350914E0360914F03709150038091E5
:1011E000550390915603A0915703B091580384176B
:1011F0009507A607B70708F065C040914D035091C9
:101200004E0360914F037091500380913F03909182
:101210004003A0914103B091420384179507A607AC
:10122000B70708F04FC08091690390916A03019756
:10123000B1E08E359B0708F045C080914D03909139
:101240004E03A0914F03B091500389839A83AB83DF
:10125000BC8305E011E08FEEF801808381E061E05E
:101260000E94760184E292E00E946701C980DA80E0
:10127000EB80FC8082E061E0A60125E030E00E9486
:1012800096018FEF9FE7A6E181509040A040E1F7E3
:1012900000C0000081E00E941901D8011C928091D9
:1012A0002F03909130039C01215030403093300344
:1012B00020932F03181619062CF480918502909123
:1012C000860200C00F900F900F900F90DF91CF918A
:1012D0001F910F91FF90EF90DF90CF9008954F9264
:1012E0005F926F927F928F929F92AF92BF92CF92B6
:1012F000DF92EF92FF920F931F93CF93DF93AA2475
:10130000BB24C0E0D0E00F2EFAEF6F2E7724F02D33
:101310000F2EF1E04F2EFFEF5F2EF02D0F2EFFEF7F
:101320008F2E9924F02D82E00E94360480932C03A6
:1013300083E00E94360480932B0381E00E943604F0
:1013400080932A0340912B0381E061E050E023E089
:1013500030E00E94960140912C0381E065E050E06E
:1013600023E030E00E94960140912A0381E069E089
:1013700050E023E030E00E94960140912C0350E0C1
:1013800020912A0330E080912B03BA01680F711D70
:10139000620F731F60357105DCF10E9445030E94E6
:1013A00022038FEF9FE80197F1F700C000000E9431
:1013B000260310922903109228030E9435038CEF14
:1013C0006FEF0E942A038091690290916A02813036
:1013D000910529F483E290E00E940A0406C0009778
:1013E00021F48AE090E00E940A040E944503DF9104
:1013F000CF911F910F91FF90EF90DF90CF90BF9012
:10140000AF909F908F907F906F905F904F900895D6
:101410001092290310922803C901880F991F9A017D
:10142000280F391F269DC001279D900D369D900DD8
:1014300011240E94701B8B010A5F1040A00EB11E88
:10144000B801882777FD8095982F0E94081926E615
:1014500036E646EE5FE30E9494196B017C01B5010C
:10146000882777FD8095982F0E94081920E030E0AA
:10147000A9010E9494199B01AC01C701B6010E9409
:1014800009186B017C01B8016C1B7D0B882777FD67
:101490008095982F0E94081920E030E048E950E438
:1014A0000E9494199B01AC01C701B6010E94091862
:1014B0000E94D518862F972F2FEF813092070CF4BA
:1014C000C2018F3F910511F00CF0C40199232CF457
:1014D000EC01C150DF4F640104C06401C81AD90A8D
:1014E000E4010E9435038C2F6C2D0E942A03E80131
:1014F0001ACF20919302309194022817390719F4DA
:101500000E946F092BC020919102309192022817FE
:10151000390779F48FE090E00E940A048CED6FEDBA
:101520000E942A038AE590E00E9420040E946F092D
:1015300015C020918D0230918E022817390771F461
:101540008FE090E00E940A048CED6FED0E942A0368
:101550008AE590E00E942B040E946F09809193021B
:1015600090919402909349038093480308952091A9
:101570008F02309190022817390719F40E946F09E1
:101580002BC020919102309192022817390779F4EB
:101590008FE090E00E940A048CED6FED0E942A0318
:1015A0008AE590E00E942B040E946F0915C02091EB
:1015B0008D0230918E022817390771F48FE090E088
:1015C0000E940A048CED6FED0E942A038AE590E0E8
:1015D0000E9420040E946F0980918F0290919002D6
:1015E0009093490380934803089520918D02309190
:1015F0008E022817390719F40E946F092BC0209119
:101600009302309194022817390779F48FE090E023
:101610000E940A048CED6FED0E942A038AE590E097
:101620000E9420040E946F0915C020918F02309102
:1016300090022817390771F48FE090E00E940A04A5
:101640008CED6FED0E942A038AE590E00E942B0446
:101650000E946F0980918D0290918E0290934903B0
:10166000809348030895209191023091920282174D
:10167000930719F40E946F092BC0209193023091B7
:1016800094028217930779F48FE090E00E940A0495
:101690008CED6FED0E942A038AE590E00E942B04F6
:1016A0000E946F0915C020918F023091900282171D
:1016B000930771F48FE090E00E940A048CED6FEDC7
:1016C0000E942A038AE590E00E9420040E946F098C
:1016D00080919102909192029093490380934803E4
:1016E00008950F931F93CF93DF93DB01209187021F
:1016F000309188028217930779F02091850230910A
:1017000086028217930759F0209183023091840258
:101710008217930749F406C0E0E0F0E005C0E1E07D
:10172000F0E002C0E2E0F0E0EE0FFF1FEE0FFF1F5F
:10173000EE0FFF1FE359FD4F42E050E021E030E0A3
:1017400004EB12E004C02F5F3F4F4F5F5F4F61918A
:1017500071912130310509F03FC0A130B105E9F4A4
:10176000CB0101978230910520F06530710509F0B9
:1017700083C0CB01880F991F800F911FEC018881D6
:10178000998182309105FCF6FB01EE0FFF1FEC54AE
:10179000FD4F01969183808374C0A230B10509F09A
:1017A0006BC0CB0103978330910508F065C0CB0176
:1017B000880F991F800F911FEC01888199818230D9
:1017C00091050CF059C0FB01EE0FFF1FEC54FD4FCB
:1017D00001969183808355C0223031050CF44CC0B2
:1017E000A130B10519F56530710561F06130710501
:1017F00049F06230710531F06330710519F06430E1
:101800007105D1F5CB01880F991F800F911FEC0155
:1018100088819981823091057CF5FB01EE0FFF1FD5
:10182000EC54FD4F0196918380832BC0A230B1050B
:1018300019F56530710561F06330710549F0643068
:10184000710531F06130710519F062307105A1F454
:10185000CB01880F991F800F911FEC01888199811E
:10186000823091054CF4FB01EE0FFF1FEC54FD4F4D
:1018700001969183808305C0443051050CF463CFF9
:1018800002C0862F972FDF91CF911F910F9108955E
:10189000CF93DF939C01E0ECF2E0C0E0D0E08081E8
:1018A00091818217930709F0A8C0C630D1050CF0CA
:1018B00051C0FE01EE0FFF1FEC0FFD1FEE0FFF1FCB
:1018C000E054FD4F828193812091870230918802FC
:1018D0008217930781F461E070E00E94710B9E0112
:1018E000220F331FC20FD31FCC0FDD1FC054DD4F9B
:1018F0009D838C8388C0209183023091840282175B
:10190000930781F461E070E00E94710B9E01220F49
:10191000331FC20FD31FCC0FDD1FC054DD4F9D837B
:101920008C8371C0209185023091860282179307C3
:1019300009F069C061E070E00E94710B9E01220F06
:10194000331FC20FD31FCC0FDD1FC054DD4F9D834B
:101950008C8359C0FE01EE0FFF1FEC0FFD1FEE0F31
:10196000FF1FE054FD4F82819381209187023091C7
:1019700088028217930789F462E070E00E94710B7D
:10198000FE01EE0FFF1FCE0FDF1FFE01EE0FFF1F48
:10199000E054FD4F9583848336C0209183023091BB
:1019A00084028217930789F462E070E00E94710B51
:1019B000FE01EE0FFF1FCE0FDF1FFE01EE0FFF1F18
:1019C000E054FD4F958384831EC0209185023091A1
:1019D000860282179307B9F462E070E00E94710BEF
:1019E000FE01EE0FFF1FCE0FDF1FFE01EE0FFF1FE8
:1019F000E054FD4F9583848306C021963696CC3003
:101A0000D10509F04CCFDF91CF910895AF92BF92ED
:101A1000CF92DF92EF92FF920F931F93CF93DF93BA
:101A20009C015B01EAE0F0E0BF010E94701B8B01AA
:101A3000EC01C501BF010E94701B6B017C012531C7
:101A4000310581F02D31310569F02931310551F031
:101A50002F31310539F02732310521F0233231059C
:101A600009F045C02A153B0509F482C00C151D0577
:101A7000E9F0C016D10664F48091480390914903BF
:101A80000E94B70A01501040C016D106A9F70EC037
:101A90000C151D055CF480914803909149030E9448
:101AA000790A0F5F1F4FC016D106A9F7CE15DF05C3
:101AB00009F45EC0EC16FD065CF480914803909139
:101AC00049030E94F50A2197EC16FD06B1F750C0B4
:101AD000CE15DF050CF04CC080914803909149036E
:101AE0000E94330B2196EC16FD06B1F741C02A1572
:101AF0003B05F1F1C817D907D9F08C179D075CF4A5
:101B000080914803909149030E94F50A2197EC16B1
:101B1000FD06B1F70DC0C817D90754F480914803EA
:101B2000909149030E94330B2196EC16FD06B1F704
:101B30000C151D05E9F0C016D10664F48091480328
:101B4000909149030E94B70A01501040C016D10677
:101B5000A9F70EC00C151D055CF480914803909107
:101B600049030E94790A0F5F1F4FC016D106A9F7DB
:101B7000DF91CF911F910F91FF90EF90DF90CF9069
:101B8000BF90AF9008952F923F924F925F926F92C5
:101B90007F928F929F92AF92BF92CF92DF92EF92FD
:101BA000FF920F931F93CF93DF93CDB7DEB7AC9720
:101BB0000FB6F894DEBF0FBECDBFAC01DE011196AB
:101BC000E1E3F2E08AE001900D928150E1F7DE015D
:101BD0001B96EBE3F2E08AE001900D928150E1F771
:101BE000DE015596E5E4F2E08AE001900D92815025
:101BF000E1F7DE015F96EFE4F2E08AE001900D92FA
:101C00008150E1F7209048033090490380918D0284
:101C100090918E029AA789A7EE24FF2400E010E09D
:101C200068E073E00F2EF6EA6F2EF2E07F2EF02DC3
:101C30000F2EF8E94F2EF2E05F2EF02D91C04C30C0
:101C40005105F1F4F5012081318114968D919C911B
:101C500015972817390709F076C0C801880F991F12
:101C6000F301E80FF91F31832083840D951D2D9119
:101C70003C911197FC01318320830F5F1F4F63C09C
:101C800042315105F1F4F4012081318114968D9196
:101C90009C9115972817390709F055C0C801880F7E
:101CA000991FF301E80FF91F31832083840D951DDF
:101CB0002D913C911197FC01318320830F5F1F4FC1
:101CC00042C04D32510519F589A59AA52816390645
:101CD000F1F4EBA5FCA52081318114968D919C91A6
:101CE00015972817390779F5C801880F991FF3014F
:101CF000E80FF91F31832083840D951D2D913C91B0
:101D00001197FC01318320830F5F1F4F1CC0F60128
:101D10002081318114968D919C9115972817390750
:101D200091F4C801880F991FF301E80FF91F31835F
:101D30002083840D951D2D913C911197FC013183D9
:101D400020830F5F1F4F1696A617B70709F077CFAE
:101D500082E090E0E80EF91E9AE0E916F10421F124
:101D6000A0ECB2E00F2EF5E1CF2EDD24F02DCC0E4D
:101D7000DD1ECE0CDF1CEFE1F0E0EC0FFD1FEE0DE1
:101D8000FF1DFCA7EBA70F2EFBE08F2E9924F02D53
:101D90008C0E9D1E8E0C9F1CAA24BB24A394AC0EFB
:101DA000BD1EAE0CBF1C4BCFE0900803F0900903A2
:101DB000A4ECB2E060E070E00F2EF8ED6F2EFFEFC4
:101DC0007F2EF02D640E751E0F2EF6EACF2EF2E058
:101DD000DF2EF02D0F2EF8E98F2EF2E09F2EF02D42
:101DE00086010A5F1F4F0F2EFAE04F2EF3E05F2EA1
:101DF000F02D0F2EF6EFAF2EFFEFBF2EF02DA40E1D
:101E0000B51E1301663071050CF052C0FAE0AF1632
:101E1000B10408F093C0DAA6C9A6A4013D012D9132
:101E20003C911197C90101978230910518F0253036
:101E3000310559F4E9A5FAA5808191812817390760
:101E400059F5F3011182108227C0E9A5FAA5208176
:101E50003181C901039782309105F0F4C701880FE1
:101E6000991F840D951DFC0131832083C7010796BE
:101E7000880F991F840D951DFA0120813181FC0185
:101E8000318320830894E11CF11CE9A5FAA5118295
:101E90001082FA011182108289A59AA502969AA74A
:101EA00089A74E5F5F4F8017910709F0B8CF46C0F2
:101EB0009AE02916310408F041C0DAA6C9A6A401A7
:101EC0003D012D913C911197C901039783309105F4
:101ED00058F4E9A5FAA5808191812817390721F5E1
:101EE000F3011182108220C0E9A5FAA52081318179
:101EF000C901019782309105B8F4C701880F991F75
:101F0000840D951DFC0131832083C7010796880F3E
:101F1000991F840D951DFA0120813181FC013183C7
:101F200020830894E11CF11C89A59AA502969AA722
:101F300089A74E5F5F4F8017910719F66F5F7F4F3C
:101F400016966C30710509F05DCFF0920903E092AE
:101F50000803AC960FB6F894DEBF0FBECDBFDF917D
:101F6000CF911F910F91FF90EF90DF90CF90BF9096
:101F7000AF909F908F907F906F905F904F903F9029
:101F80002F900895E0ECF2E040E050E0433051053E
:101F90002CF4CA010C969183808318C0CA019A015F
:101FA000235030402330310520F40D9691838083F7
:101FB0000DC09A01265030402330310520F484961C
:101FC0009183808303C08596918380834F5F5F4FA9
:101FD00036964C305105D1F60895EF92FF920F934B
:101FE0001F93CF93DF9380915C0390915D038F30BB
:101FF000910509F08DC020914803309149038091EB
:102000009302909194022817390709F070C02AC0F2
:1020100080915C0390915D030E94060D809167039F
:102020009091680390935D0380935C030197909374
:10203000680380936703E7018881998120915C039D
:1020400030915D038217930741F40E9448079B83F8
:102050008A83888199810E94480C2696C017D107EF
:1020600059F708C00F2EF0ECEF2EF2E0FF2EF02D06
:1020700008E013E060916703709168036C307105AC
:102080003CF620914803309149038091930290914E
:10209000940228173907E1F12AC080915C039091DE
:1020A0005D030E94060D80916703909168039093F1
:1020B0005D0380935C0301969093680380936703AC
:1020C000E7018881998120915C0330915D0382173B
:1020D000930741F40E9448079B838A8388819981F2
:1020E0000E94480C2696C017D10759F708C00F2E3A
:1020F000F0ECEF2EF2E0FF2EF02D08E013E06091FF
:10210000670370916803CB0140978330910528F2F3
:1021100080915C0390915D0381339105D9F52AC0CC
:1021200080915C0390915D030E94060D809167038E
:102130009091680390935D0380935C030197909363
:10214000680380936703E7018881998120915C038C
:1021500030915D038217930741F40E9448079B83E7
:102160008A83888199810E94480C2696C017D107DE
:1021700059F708C00F2EF0ECEF2EF2E0FF2EF02DF5
:1021800008E013E060916703709168036D32710598
:102190003CF6C9C089329105D9F52AC080915C030B
:1021A00090915D030E94060D8091670390916803F2
:1021B00090935D0380935C030196909368038093F2
:1021C0006703E7018881998120915C0330915D0369
:1021D0008217930741F40E9448079B838A83888172
:1021E00099810E94480C2696C017D10759F708C05C
:1021F0000F2EF0ECEF2EF2E0FF2EF02D08E013E0B2
:1022000060916703709168036E3271053CF28BC078
:102210008D32910509F087C0809148039091490360
:1022200020918D0230918E0282179307D9F52AC032
:1022300080915C0390915D030E94060D809167037D
:102240009091680390935D0380935C030197909352
:10225000680380936703E7018881998120915C037B
:1022600030915D038217930741F40E9448079B83D6
:102270008A83888199810E94480C2696C017D107CD
:1022800059F708C00F2EF0ECEF2EF2E0FF2EF02DE4
:1022900008E013E06091670370916803693271058B
:1022A0003CF641C02091910230919202821793072F
:1022B000D1F52AC080915C0390915D030E94060DC8
:1022C000809167039091680390935D0380935C0312
:1022D00001969093680380936703E7018881998151
:1022E00020915C0330915D038217930741F40E94B3
:1022F00048079B838A83888199810E94480C26968F
:10230000C017D10759F708C00F2EF0ECEF2EF2E0FE
:10231000FF2EF02D08E013E06091670370916803D1
:10232000613371053CF2DF91CF911F910F91FF90C6
:10233000EF90089580914803909149032091930272
:10234000309194028217930749F480918F02909103
:1023500090029093490380934803089540918F021F
:10236000509190028417950729F4309349032093E4
:102370004803089520918D0230918E0282179307B1
:1023800049F4809191029091920290934903809335
:102390004803089540919102509192028417950745
:1023A00021F4309349032093480308954F925F929C
:1023B0006F927F928F929F92AF92BF92DF92EF9235
:1023C000FF920F931F93CF93DF93CDB7DEB72C9778
:1023D0000FB6F894DEBF0FBECDBFDE011196E9E562
:1023E000F2E086E001900D928150E1F7DE01179650
:1023F000EFE5F2E086E001900D928150E1F70F2EBB
:10240000F8E9AF2EF2E0BF2EF02D0F2EF6EA8F2E58
:10241000F2E09F2EF02D0F2EF6E06F2E7724F02D98
:102420006A0C7B1C0F2EFAE0EF2EFF24F02D0F2EEE
:10243000F4EB4F2EF2E05F2EF02D0E9435038CEF6F
:102440006FEF0E942A03D5012D913D915D01C901D5
:102450000C978730910560F4F4018081918141E00F
:1024600050E04C0F5D1F840F951FDC01DC9010C005
:10247000C9018A978730910558F4F40180819181D0
:1024800047E050E04C0F5D1F840F951FDC01DC908E
:102490002115310509F48EC1309368032093670339
:1024A0000E944503E0915C03F0915D03CF010C971E
:1024B0008730910530F0CF018A978730910508F079
:1024C00045C0009148031091490380919102909179
:1024D000920208171907D1F480916703909168035D
:1024E000B7010E94701B9C01CF01B7010E94701BB5
:1024F000281739075CF48CED6FED0E942A038FEBEF
:1025000090E00E9420040E949A1120C080916703ED
:1025100090916803B7010E94701B9C01CF01B70125
:102520000E94701B821793078CF480918D0290910A
:102530008E020817190751F48CED6FED0E942A03E3
:102540008FEB90E00E9420040E949A110E944503A4
:10255000609167037091680380915C0390915D03C3
:102560000E94060D909167038091680390935C032D
:1025700080935D03292F382FC9010C97873091056F
:10258000A8F48091480390914903209191023091E1
:1025900092028217930729F489E190E00E940A04CD
:1025A0001EC083E290E00E94150419C0C9018A97F9
:1025B00087309105A0F480914803909149032091C0
:1025C0008D0230918E028217930729F489E190E001
:1025D0000E940A0404C083E290E00E941504C7012F
:1025E0000E940A040E9411060E9445038FEF9FEF8C
:1025F000ACE281509040A040E1F700C00000DD2037
:1026000009F4D8C08D2D90E0D092670390936803B1
:10261000E0915C03F0915D039F012C503040273026
:10262000310530F09F012A52304027303105C8F57E
:10263000B7010E94701B8C01CF01B7010E94701B73
:1026400008171907B4F420914803309149034091C9
:102650009102509192022417350759F48CED6FEDD9
:102660000E942A038FEB90E00E9420040E949A119E
:1026700018C080179107ACF48091480390914903EA
:1026800020918D0230918E028217930751F48CEDC8
:102690006FED0E942A038FEB90E00E9420040E94BD
:1026A0009A11609167037091680380915C03909127
:1026B0005D030E94060D80916703909168039093DB
:1026C0005D0380935C038931910519F08332910594
:1026D00079F48CED6FED0E942A038FEB90E00E945D
:1026E00020040E949A118CE390E00E9415043DC0E2
:1026F0008531910519F08F319105C9F488E590E095
:102700000E942B0480919102909192029093490330
:10271000809348030E946F098CED6FED0E942A039D
:102720008FEB90E00E9420040E949A111EC08D3110
:10273000910519F087329105C1F488E590E00E9477
:10274000200480918D0290918E0290934903809392
:1027500048030E946F098CED6FED0E942A038FEBF6
:1027600090E00E9420040E949A11D4018D919D91C5
:102770004D01880F991F840D951DFC018081918169
:102780000E94ED0480915C0390915D038531910579
:1027900049F08D31910531F08F31910519F0873273
:1027A000910521F40E946F090E944503A614B70405
:1027B00009F043CE2C960FB6F894DEBF0FBECDBF06
:1027C000DF91CF911F910F91FF90EF90DF90BF901D
:1027D000AF909F908F907F906F905F904F900895F3
:1027E0006F927F928F929F92AF92BF92CF92DF9221
:1027F000EF92FF920F931F93CF93DF930E94910468
:102800000E94D6000E946A046091310370913203E5
:1028100040912F035091300320912D0330912E03CE
:10282000ADE6B2E0ED0126968D919D911FEF8F3FB1
:10283000910711F06F5F7F4FFD0116968D919C916E
:1028400017971FEF8F3F910711F04F5F5F4F8685FE
:102850009785EFEF8F3F9E0711F02F5F3F4FAC172B
:10286000BD0711F7220F331F30932E0320932D0342
:10287000440F551F5093300340932F03660F771F6B
:10288000709332036093310381E090E090936A0289
:1028900080936902809193029091940290934903EE
:1028A0008093480385E00E94D40488E70E94BB041B
:1028B00080E50E94A20480916B0290916C022091AD
:1028C000730230917402820F931F20917B0230912A
:1028D0007C02820F931F90935F0380935E030E949C
:1028E000C20F0E946F098FE090E090935D03809388
:1028F0005C038EE090E090936803809367030E94EE
:10290000ED0F80915C0390915D030E94C30D0E94C6
:1029100045038CED6FED0E942A038FEB90E00E943F
:10292000200489E190E00E9415040E9445038091F3
:1029300091029091920290934903809348030E94E0
:10294000D6110F2EF6EA8F2EF2E09F2EF02D0F2ECD
:10295000F8E9AF2EF2E0BF2EF02D0F2EFEE0EF2EA5
:10296000FF24F02DE80CF91CD501F401119211920D
:102970001D921D92EE15FF05C9F784EB0E94D40449
:1029800020915C0330915D032F31310549F12531F0
:10299000310531F1409148035091490380918D02F6
:1029A00090918E024817590789F080919302909177
:1029B00094024817590751F0203131058CF080916D
:1029C0009102909192024817590751F48CED6FEDE6
:1029D0000E942A038FEB90E00E9420040E949A112B
:1029E00080915C0390915D036FE070E00E94060DA2
:1029F000209148033091490380918D0290918E027D
:102A00002817390739F08091930290919402281782
:102A1000390791F480915C0390915D030C978730A6
:102A2000910550F48CED6FED0E942A038FEB90E03E
:102A30000E9420040E949A118FE090E090935D0321
:102A400080935C0380E190E0909368038093670338
:102A50000E94ED0F80915C0390915D030E94C30D75
:102A60008CED6FED0E942A038FEB90E00E94200412
:102A700080918D0290918E02909349038093480338
:102A80000E94450388E290E00E9415040E94D6113E
:102A90000E944503D501F401119211921D921D92DD
:102AA000EE15FF05C9F7C0E0D0E001E010E041E01D
:102AB00050E067E070E0AAE0B3E008C0A8014F5F13
:102AC0005F4F46175707ECF5E8018A01CA010796E0
:102AD000880F991FFD01E80FF91FCE010796880F97
:102AE000991F8A0F9B1F20813181FC018081918178
:102AF00028173907E9F446175707BCF4CA01880FAD
:102B0000991FFC01E65FFC4FCB01880F991F9C01C8
:102B1000265F3C4F80899189978786878281938140
:102B200081939193E217F307A9F76150704002C0B7
:102B30004F5F5F4F461757074CF2061717070CF405
:102B4000BDCF0F2EFAE0CF2EF3E0DF2EF02D0F2EAB
:102B5000F6EA6F2EF2E07F2EF02D9401D601E5010A
:102B6000FD011E968D919C911F97899399931296C2
:102B700080819181F901819391939F01C615D705B9
:102B800079F70E9445030E94D611F601E501D401B0
:102B90001D921D9219921992119211921586148606
:102BA000AE15BF05A9F71092090310920803E4ECD3
:102BB000F2E08CE093E0118210823696E817F90774
:102BC000D1F780915C0390915D038F319105C1F045
:102BD0009C012C5030402330310508F40CC21AC03F
:102BE0000E9445038CED6FED0E942A038FEB90E06D
:102BF0000E9420040E949A1184E190E00E940A043D
:102C000089E290E0909368038093670380E00E94DC
:102C1000D40430C08732910529F040978330910564
:102C200028F028C0409783309105D8F4809148035C
:102C30009091490320918D0230918E028217930763
:102C400081F40E9445038CED6FED0E942A038FEB07
:102C500090E00E9420040E949A1184E190E00E947A
:102C60000A0481E390E0909368038093670384EB08
:102C70000E94D404609167037091680380915C03A3
:102C800090915D030E94060D809167039091680307
:102C900090935D0380935C038932910549F48AE245
:102CA00090E09093680380936703CEE2D0E00EC07B
:102CB0008133910549F480E390E090936803809319
:102CC0006703CCE2D0E002C0C0E0D0E00E94ED0F8C
:102CD00080915C0390915D030E94C30D0E944503A7
:102CE0008CED6FED0E942A038FEB90E00E94200490
:102CF0000E949A110E9445030E94D6110E9445032A
:102D0000D501F401119211921D921D92EE15FF054D
:102D1000C9F7CE32D10509F063C020914803309144
:102D2000490380918D0290918E0228173907B1F0E6
:102D300080918F02909190022817390779F0809145
:102D40005C0390915D038E978330910598F4809198
:102D50009102909192022817390761F40E9445036D
:102D60008CED6FED0E942A038FEB90E00E9420040F
:102D70000E949A1180915C0390915D036DE270E076
:102D80000E94060D209148033091490380918D02E5
:102D900090918E022817390739F080919302909113
:102DA00094022817390761F40E9445038CED6FEDFA
:102DB0000E942A038FEB90E00E9420040E949A1147
:102DC0008DE290E090935D0380935C038EE290E04F
:102DD000909368038093670380E00E94D40466C0E8
:102DE000CC32D10509F062C02091480330914903EB
:102DF000809191029091920228173907B1F0809149
:102E00008F02909190022817390779F080915C0326
:102E100090915D038A978330910598F480918D029B
:102E200090918E022817390761F40E9445038CEDBA
:102E30006FED0E942A038FEB90E00E9420040E9415
:102E40009A1180915C0390915D036DE270E00E94A5
:102E5000060D209148033091490380919102909191
:102E600092022817390739F08091930290919402C9
:102E70002817390761F40E9445038CED6FED0E941D
:102E80002A038FEB90E00E9420040E949A118DE2A9
:102E900090E090935D0380935C038CE290E09093CC
:102EA00068038093670384EB0E94D4040E94ED0FB3
:102EB00080915C0390915D030E94C30D0E944503C5
:102EC0008CED6FED0E942A038FEB90E00E942004AE
:102ED0000E949A110E94D6110E944503D501F40167
:102EE000119211921D921D92EE15FF05C9F701E096
:102EF00010E0C0E0D0E041E050E067E070E0AAE020
:102F0000B3E008C0A8014F5F5F4F46175707ECF5C5
:102F1000E8018A01CA010796880F991FFD01E80F91
:102F2000F91FCE010796880F991F8A0F9B1F2081DA
:102F30003181FC018081918128173907E9F4461716
:102F40005707BCF4CA01880F991FFC01E65FFC4FCC
:102F5000CB01880F991F9C01265F3C4F8089918986
:102F6000978786878281938181939193E217F307F4
:102F7000A9F76150704002C04F5F5F4F4617570777
:102F80004CF2061717070CF4BDCFF601868597851E
:102F9000D5018D939D935D0182E090E0C80ED91E0E
:102FA00080819181D4018D939D934D01A614B70426
:102FB00061F70E9445030E94D6110E9445030E94BA
:102FC00022038FEF9FE3A3EE81509040A040E1F7F2
:102FD00000C000000E942603DF91CF911F910F9146
:102FE000FF90EF90DF90CF90BF90AF909F908F9029
:102FF0007F906F90089580914803909149032091AC
:103000009102309192028217930709F0F9CDE8CD31
:103010005058BB27AA270ED04DC13ED130F043D126
:1030200020F031F49F3F11F41EF433C10EF4E0950B
:10303000E7FB29C1E92F4FD180F3BA176207730765
:103040008407950718F071F49EF567C10EF4E095BA
:103050000B2EBA2FA02D0B01B90190010C01CA0152
:10306000A0011124FF27591B99F0593F50F4503EFD
:1030700068F11A16F040A22F232F342F4427585FEF
:10308000F3CF469537952795A795F0405395C9F707
:103090007EF41F16BA0B620B730B840BBAF09150BF
:1030A000A1F0FF0FBB1F661F771F881FC2F70EC05E
:1030B000BA0F621F731F841F48F487957795679531
:1030C000B795F7959E3F08F0B3CF9395880F08F01A
:1030D0009927EE0F9795879508950CD0EBC0E3D014
:1030E00040F0DAD030F021F45F3F19F0CCC051113C
:1030F00015C1CFC0F0D098F39923C9F35523B1F38C
:10310000951B550BBB27AA2762177307840738F056
:103110009F5F5F4F220F331F441FAA1FA9F333D0B5
:103120000E2E3AF0E0E830D091505040E695001C69
:10313000CAF729D0FE2F27D0660F771F881FBB1F25
:10314000261737074807AB07B0E809F0BB0B802DFF
:10315000BF01FF2793585F4F2AF09E3F510568F04B
:1031600092C0DCC05F3FECF3983EDCF38695779528
:103170006795B795F7959F5FC9F7880F911D96954D
:10318000879597F90895E1E0660F771F881FBB1FA9
:10319000621773078407BA0720F0621B730B840B56
:1031A000BA0BEE1F88F7E095089504D06894B1112A
:1031B000B5C0089598D088F09F5790F0B92F9927FF
:1031C000B751A0F0D1F0660F771F881F991F1AF032
:1031D000BA95C9F712C0B13081F09FD0B1E008951F
:1031E0009CC0672F782F8827B85F39F0B93FCCF3A0
:1031F000869577956795B395D9F73EF49095809528
:10320000709561957F4F8F4F9F4F0895E89409C047
:1032100097FB3EF490958095709561957F4F8F4F09
:103220009F4F9923A9F0F92F96E9BB279395F6951F
:10323000879577956795B795F111F8CFFAF4BB0F9D
:1032400011F460FF1BC06F5F7F4F8F4F9F4F16C001
:10325000882311F096E911C0772321F09EE8872F8B
:10326000762F05C0662371F096E8862F70E060E047
:103270002AF09A95660F771F881FDAF7880F9695C0
:10328000879597F9089597F99F6780E870E060E067
:1032900008959FEF80EC089500240A9416161706EF
:1032A00018060906089500240A9412161306140637
:1032B00005060895092E0394000C11F4882352F09A
:1032C000BB0F40F4BF2B11F460FF04C06F5F7F4F52
:1032D0008F4F9F4F089557FD9058440F551F59F039
:1032E0005F3F71F04795880F97FB991F61F09F3FF3
:1032F00079F087950895121613061406551FF2CF1C
:103300004695F1DF08C0161617061806991FF1CF6B
:1033100086957105610508940895E894BB27662792
:103320007727CB0197F908950BD0C4CFB5DF28F0EC
:10333000BADF18F0952309F0A6CFABCF1124EECF5A
:10334000CADFA0F3959FD1F3950F50E0551F629F00
:10335000F001729FBB27F00DB11D639FAA27F00DEE
:10336000B11DAA1F649F6627B00DA11D661F829F15
:103370002227B00DA11D621F739FB00DA11D621FFA
:10338000839FA00D611D221F749F3327A00D611D17
:10339000231F849F600D211D822F762F6A2F1124F9
:1033A0009F5750408AF0E1F088234AF0EE0FFF1F4C
:1033B000BB1F661F771F881F91505040A9F79E3F83
:1033C000510570F060CFAACF5F3FECF3983EDCF37D
:1033D000869577956795B795F795E7959F5FC1F7C0
:1033E000FE2B880F911D9695879597F90895FA0100
:1033F000EE0FFF1F30962105310599F1611571051A
:1034000061F48038BFE39B0749F1689490388105E7
:1034100061F08038BFEF9B0741F0992342F5FF3FF1
:10342000E1053105210511F1E8940894E795D901EA
:10343000AA2329F4AB2FBE2FF85FD0F310C0FF5F93
:1034400070F4A695E0F7F73950F019F0FF3A38F428
:103450009F779F930CD00F9007FC905808953EF0F3
:1034600018CF60E070E080E89FE308954FE79F7712
:103470005F934F933F932F939ED02F913F914F9106
:103480005F9152DF05C019F40EF0FDCE46CF01CF9B
:103490002ADFC8F39638C0F707F80F92E8942BE3B9
:1034A0003AEA48EB5FE74EDF0F920F920F924DB76B
:1034B0005EB70F92C0D0E4EEF0E016D04F915F916E
:1034C000EF91FF91E595EE1FFF1F49F0FE57E06871
:1034D0004427EE0F441FFA95E1F74195550B32D082
:1034E0000F9007FE26C00895DF93CF931F930F938D
:1034F000FF92EF92DF927B018C01689405C0DA2E77
:10350000EF011EDFFE01E894A591259135914591CB
:103510005591AEF3EF018EDDFE019701A801DA941B
:1035200079F7DF90EF90FF900F911F91CF91DF918E
:1035300008959B01AC0160E070E080E89FE3CDCD91
:10354000A2CEACC0D0DEE8F39923D9F3940F511D7D
:10355000BBF39150504094F059F0882332F0660F3D
:10356000771F881F91505040C1F79E3F510544F787
:10357000880F911D9695879597F908955F3FACF058
:10358000983E9CF0BB27869577956795B79508F48C
:10359000B1609395C1F7BB0F58F711F460FFE8CF06
:1035A0006F5F7F4F8F4F9F4FE3CFB8CE0EF076C047
:1035B00070CE689468CE97DEC8F39923D1F3C6F332
:1035C000DF93CF931F930F93FF92C92FDD2788239B
:1035D0002AF02197660F771F881FDAF720E030E086
:1035E00040E85FEB9FE3883920F0803E30F0219681
:1035F0008F770FDDECE0F1E003C00BDDE9E3F1E0F4
:1036000073DF8B01BE01EC01FB2E6F5771097595BD
:10361000771F880B990BFCDD28E132E741E35FE37C
:103620008FDEAF2D9801AE01FF900F911F91CF91CA
:10363000DF9100DD3FCEFA01DC01AA0FBB1F9B0129
:10364000AC01BF5728F422273327442750781FC0E6
:10365000B75188F4AB2F0024469537952795011C68
:10366000A395D2F3002069F0220F331F441FB395B6
:10367000DAF30DD0CDCC61307105A0E88A07B946E8
:1036800030F49B01AC016627772788279078309625
:1036900021F0208331834283538308959F3F31F08B
:1036A000915020F4879577956795B795880F911D70
:1036B0009695879597F90895AA1BBB1B51E107C002
:1036C000AA1FBB1FA617B70710F0A61BB70B881FB2
:1036D000991F5A95A9F780959095BC01CD01089541
:1036E00097FB092E07260AD077FD04D0E5DF06D028
:1036F00000201AF4709561957F4F0895F6F7909524
:0A37000081959F4F0895F894FFCFC4
:10370A00426C61636B2050756C736573005265641B
:10371A002050756C73657300426C75652050756C2A
:10372A0073657300477265656E2050756C736573B7
:10373A000001000500020003000400020005000168
:10374A000004000300030005000400010002000455
:10375A00000500030002000100000D111F271900D7
:10376A00151D2B2F23B4000500010003000200FFE2
:10377A00FFFFFF010001000500FFFF010003000435
:10378A0000FFFF040003000200010005000400031B
:06379A0000020001000026
:00000001FF
